{
  "contractName": "Memecoin",
  "abi": [
    {
      "inputs": [
        {
          "internalType": "string",
          "name": "name_",
          "type": "string"
        },
        {
          "internalType": "string",
          "name": "symbol_",
          "type": "string"
        }
      ],
      "payable": false,
      "stateMutability": "nonpayable",
      "type": "constructor"
    },
    {
      "constant": true,
      "inputs": [],
      "name": "getName",
      "outputs": [
        {
          "internalType": "string",
          "name": "",
          "type": "string"
        }
      ],
      "payable": false,
      "stateMutability": "view",
      "type": "function"
    },
    {
      "constant": true,
      "inputs": [],
      "name": "totalSupply",
      "outputs": [
        {
          "internalType": "uint256",
          "name": "",
          "type": "uint256"
        }
      ],
      "payable": false,
      "stateMutability": "view",
      "type": "function"
    },
    {
      "constant": true,
      "inputs": [],
      "name": "decimals",
      "outputs": [
        {
          "internalType": "uint8",
          "name": "",
          "type": "uint8"
        }
      ],
      "payable": false,
      "stateMutability": "pure",
      "type": "function"
    },
    {
      "constant": true,
      "inputs": [
        {
          "internalType": "address",
          "name": "account",
          "type": "address"
        }
      ],
      "name": "balanceOf",
      "outputs": [
        {
          "internalType": "uint256",
          "name": "",
          "type": "uint256"
        }
      ],
      "payable": false,
      "stateMutability": "view",
      "type": "function"
    },
    {
      "constant": false,
      "inputs": [
        {
          "internalType": "address",
          "name": "recipient",
          "type": "address"
        },
        {
          "internalType": "uint256",
          "name": "amount",
          "type": "uint256"
        }
      ],
      "name": "transfer",
      "outputs": [
        {
          "internalType": "bool",
          "name": "",
          "type": "bool"
        }
      ],
      "payable": false,
      "stateMutability": "nonpayable",
      "type": "function"
    },
    {
      "constant": true,
      "inputs": [
        {
          "internalType": "address",
          "name": "owner",
          "type": "address"
        },
        {
          "internalType": "address",
          "name": "spender",
          "type": "address"
        }
      ],
      "name": "allowance",
      "outputs": [
        {
          "internalType": "uint256",
          "name": "",
          "type": "uint256"
        }
      ],
      "payable": false,
      "stateMutability": "view",
      "type": "function"
    },
    {
      "constant": false,
      "inputs": [
        {
          "internalType": "address",
          "name": "spender",
          "type": "address"
        },
        {
          "internalType": "uint256",
          "name": "amount",
          "type": "uint256"
        }
      ],
      "name": "approve",
      "outputs": [
        {
          "internalType": "bool",
          "name": "",
          "type": "bool"
        }
      ],
      "payable": false,
      "stateMutability": "nonpayable",
      "type": "function"
    },
    {
      "constant": false,
      "inputs": [
        {
          "internalType": "address",
          "name": "sender",
          "type": "address"
        },
        {
          "internalType": "address",
          "name": "recipient",
          "type": "address"
        },
        {
          "internalType": "uint256",
          "name": "amount",
          "type": "uint256"
        }
      ],
      "name": "transferFrom",
      "outputs": [],
      "payable": false,
      "stateMutability": "nonpayable",
      "type": "function"
    },
    {
      "constant": false,
      "inputs": [
        {
          "internalType": "address",
          "name": "spender",
          "type": "address"
        },
        {
          "internalType": "uint256",
          "name": "addedValue",
          "type": "uint256"
        }
      ],
      "name": "increaseAllowance",
      "outputs": [
        {
          "internalType": "bool",
          "name": "",
          "type": "bool"
        }
      ],
      "payable": false,
      "stateMutability": "nonpayable",
      "type": "function"
    },
    {
      "constant": false,
      "inputs": [
        {
          "internalType": "address",
          "name": "spender",
          "type": "address"
        },
        {
          "internalType": "uint256",
          "name": "subtractedValue",
          "type": "uint256"
        }
      ],
      "name": "decreaseAllowance",
      "outputs": [],
      "payable": false,
      "stateMutability": "nonpayable",
      "type": "function"
    },
    {
      "constant": true,
      "inputs": [
        {
          "internalType": "address",
          "name": "sender",
          "type": "address"
        },
        {
          "internalType": "address",
          "name": "recipient",
          "type": "address"
        },
        {
          "internalType": "uint256",
          "name": "amount",
          "type": "uint256"
        }
      ],
      "name": "_transfer",
      "outputs": [],
      "payable": false,
      "stateMutability": "view",
      "type": "function"
    }
  ],
  "bytecode": "0x608060405264e8d4a510006000553480156200001a57600080fd5b506040516200105238038062001052833981810160405260408110156200004057600080fd5b81019080805160405193929190846401000000008211156200006157600080fd5b838201915060208201858111156200007857600080fd5b82518660018202830111640100000000821117156200009657600080fd5b8083526020830192505050908051906020019080838360005b83811015620000cc578082015181840152602081019050620000af565b50505050905090810190601f168015620000fa5780820380516001836020036101000a031916815260200191505b50604052602001805160405193929190846401000000008211156200011e57600080fd5b838201915060208201858111156200013557600080fd5b82518660018202830111640100000000821117156200015357600080fd5b8083526020830192505050908051906020019080838360005b83811015620001895780820151818401526020810190506200016c565b50505050905090810190601f168015620001b75780820380516001836020036101000a031916815260200191505b506040525050508160029080519060200190620001d69291906200027d565b508060039080519060200190620001ef9291906200027d565b506200020533620186a06200020d60201b60201c565b50506200032c565b6000548111156200021d57600080fd5b80600160008473ffffffffffffffffffffffffffffffffffffffff1673ffffffffffffffffffffffffffffffffffffffff168152602001908152602001600020600082825401925050819055508060008082825403925050819055505050565b828054600181600116156101000203166002900490600052602060002090601f016020900481019282601f10620002c057805160ff1916838001178555620002f1565b82800160010185558215620002f1579182015b82811115620002f0578251825591602001919060010190620002d3565b5b50905062000300919062000304565b5090565b6200032991905b80821115620003255760008160009055506001016200030b565b5090565b90565b610d16806200033c6000396000f3fe608060405234801561001057600080fd5b50600436106100a95760003560e01c8063313ce56711610071578063313ce5671461029157806339509351146102b557806370a082311461031b578063a457c2d714610373578063a9059cbb146103c1578063dd62ed3e14610427576100a9565b8063095ea7b3146100ae57806317d7de7c1461011457806318160ddd1461019757806323b872dd146101b557806330e0789e14610223575b600080fd5b6100fa600480360360408110156100c457600080fd5b81019080803573ffffffffffffffffffffffffffffffffffffffff1690602001909291908035906020019092919050505061049f565b604051808215151515815260200191505060405180910390f35b61011c610565565b6040518080602001828103825283818151815260200191508051906020019080838360005b8381101561015c578082015181840152602081019050610141565b50505050905090810190601f1680156101895780820380516001836020036101000a031916815260200191505b509250505060405180910390f35b61019f610607565b6040518082815260200191505060405180910390f35b610221600480360360608110156101cb57600080fd5b81019080803573ffffffffffffffffffffffffffffffffffffffff169060200190929190803573ffffffffffffffffffffffffffffffffffffffff16906020019092919080359060200190929190505050610610565b005b61028f6004803603606081101561023957600080fd5b81019080803573ffffffffffffffffffffffffffffffffffffffff169060200190929190803573ffffffffffffffffffffffffffffffffffffffff16906020019092919080359060200190929190505050610836565b005b6102996108d3565b604051808260ff1660ff16815260200191505060405180910390f35b610301600480360360408110156102cb57600080fd5b81019080803573ffffffffffffffffffffffffffffffffffffffff169060200190929190803590602001909291905050506108dc565b604051808215151515815260200191505060405180910390f35b61035d6004803603602081101561033157600080fd5b81019080803573ffffffffffffffffffffffffffffffffffffffff1690602001909291905050506109ab565b6040518082815260200191505060405180910390f35b6103bf6004803603604081101561038957600080fd5b81019080803573ffffffffffffffffffffffffffffffffffffffff169060200190929190803590602001909291905050506109f4565b005b61040d600480360360408110156103d757600080fd5b81019080803573ffffffffffffffffffffffffffffffffffffffff16906020019092919080359060200190929190505050610abc565b604051808215151515815260200191505060405180910390f35b6104896004803603604081101561043d57600080fd5b81019080803573ffffffffffffffffffffffffffffffffffffffff169060200190929190803573ffffffffffffffffffffffffffffffffffffffff169060200190929190505050610be7565b6040518082815260200191505060405180910390f35b60008073ffffffffffffffffffffffffffffffffffffffff168373ffffffffffffffffffffffffffffffffffffffff1614156104da57600080fd5b81600560008573ffffffffffffffffffffffffffffffffffffffff1673ffffffffffffffffffffffffffffffffffffffff16815260200190815260200160002060003373ffffffffffffffffffffffffffffffffffffffff1673ffffffffffffffffffffffffffffffffffffffff168152602001908152602001600020819055506001905092915050565b606060028054600181600116156101000203166002900480601f0160208091040260200160405190810160405280929190818152602001828054600181600116156101000203166002900480156105fd5780601f106105d2576101008083540402835291602001916105fd565b820191906000526020600020905b8154815290600101906020018083116105e057829003601f168201915b5050505050905090565b60008054905090565b600073ffffffffffffffffffffffffffffffffffffffff168373ffffffffffffffffffffffffffffffffffffffff16141561064a57600080fd5b600073ffffffffffffffffffffffffffffffffffffffff168273ffffffffffffffffffffffffffffffffffffffff16141561068457600080fd5b600560008373ffffffffffffffffffffffffffffffffffffffff1673ffffffffffffffffffffffffffffffffffffffff16815260200190815260200160002060008473ffffffffffffffffffffffffffffffffffffffff1673ffffffffffffffffffffffffffffffffffffffff1681526020019081526020016000205481111561070d57600080fd5b80600560008473ffffffffffffffffffffffffffffffffffffffff1673ffffffffffffffffffffffffffffffffffffffff16815260200190815260200160002060008573ffffffffffffffffffffffffffffffffffffffff1673ffffffffffffffffffffffffffffffffffffffff1681526020019081526020016000206000828254039250508190555080600160008573ffffffffffffffffffffffffffffffffffffffff1673ffffffffffffffffffffffffffffffffffffffff1681526020019081526020016000206000828254039250508190555080600160008473ffffffffffffffffffffffffffffffffffffffff1673ffffffffffffffffffffffffffffffffffffffff16815260200190815260200160002060008282540192505081905550505050565b600073ffffffffffffffffffffffffffffffffffffffff168373ffffffffffffffffffffffffffffffffffffffff16141561087057600080fd5b600073ffffffffffffffffffffffffffffffffffffffff168273ffffffffffffffffffffffffffffffffffffffff1614156108aa57600080fd5b808373ffffffffffffffffffffffffffffffffffffffff163110156108ce57600080fd5b505050565b60006010905090565b60008073ffffffffffffffffffffffffffffffffffffffff168373ffffffffffffffffffffffffffffffffffffffff16141561091757600080fd5b81600560008573ffffffffffffffffffffffffffffffffffffffff1673ffffffffffffffffffffffffffffffffffffffff16815260200190815260200160002060003373ffffffffffffffffffffffffffffffffffffffff1673ffffffffffffffffffffffffffffffffffffffff168152602001908152602001600020600082825401925050819055506001905092915050565b6000600160008373ffffffffffffffffffffffffffffffffffffffff1673ffffffffffffffffffffffffffffffffffffffff168152602001908152602001600020549050919050565b600073ffffffffffffffffffffffffffffffffffffffff168273ffffffffffffffffffffffffffffffffffffffff161415610a2e57600080fd5b80600560008473ffffffffffffffffffffffffffffffffffffffff1673ffffffffffffffffffffffffffffffffffffffff16815260200190815260200160002060003373ffffffffffffffffffffffffffffffffffffffff1673ffffffffffffffffffffffffffffffffffffffff168152602001908152602001600020600082825403925050819055505050565b60008073ffffffffffffffffffffffffffffffffffffffff168373ffffffffffffffffffffffffffffffffffffffff161415610af757600080fd5b600160003373ffffffffffffffffffffffffffffffffffffffff1673ffffffffffffffffffffffffffffffffffffffff16815260200190815260200160002054821115610b4357600080fd5b81600160008573ffffffffffffffffffffffffffffffffffffffff1673ffffffffffffffffffffffffffffffffffffffff1681526020019081526020016000206000828254019250508190555081600160003373ffffffffffffffffffffffffffffffffffffffff1673ffffffffffffffffffffffffffffffffffffffff168152602001908152602001600020600082825403925050819055506001905092915050565b60008073ffffffffffffffffffffffffffffffffffffffff168373ffffffffffffffffffffffffffffffffffffffff161415610c2257600080fd5b600073ffffffffffffffffffffffffffffffffffffffff168273ffffffffffffffffffffffffffffffffffffffff161415610c5c57600080fd5b600560008373ffffffffffffffffffffffffffffffffffffffff1673ffffffffffffffffffffffffffffffffffffffff16815260200190815260200160002060008473ffffffffffffffffffffffffffffffffffffffff1673ffffffffffffffffffffffffffffffffffffffff1681526020019081526020016000205490509291505056fea265627a7a7231582045115ff80e55055ceeaaefce18c2d6cbc45da57a27593fee227cd916fe1103ea64736f6c63430005100032",
  "source": "// SPDX-License-Identifier: MIT\n\npragma solidity >= 0.4.0;\n\n// Fix transfer and transfer-from methods\n\ncontract Memecoin {\n\tuint256 internal supply = 1000000000000; // A trillion worth of shitcoin ;)\n\tmapping(address => uint256) internal holders;\n\tstring internal _name;\n\tstring internal _symbol;\n\tuint8 internal _decimals;\n\tmapping(address => mapping(address => uint256)) internal _allowances; // Nested mapping to keep track of all the allowances\n\n\tconstructor(string memory name_, string memory symbol_) public {\n\t\t_name = name_;\n\t\t_symbol = symbol_;\n\t\t_mint(msg.sender, 100000);\n\t}\n\n\tfunction getName() public view returns(string memory) {\n\t\treturn _name;\n\t}\n\n\tfunction totalSupply() public view returns(uint256) {\n\t\treturn supply;\n\t}\n\n\tfunction decimals() public pure returns (uint8) {\n  \t\treturn 16;\n\t}\n\n\tfunction balanceOf(address account) public view returns(uint256) {\n\t\treturn holders[account];\n\t}\n\n\tfunction transfer(address recipient, uint256 amount) public returns(bool) {\n\t\trequire(address(recipient) != address(0));\n\t\trequire(amount <= holders[msg.sender]);\n\t\t\n\t\tholders[recipient] += amount; // Transfer token amount\n\t\tholders[msg.sender] -= amount;\n\n\t\treturn true;\n\t}\n\n\tfunction allowance(address owner, address spender) public view returns(uint256) {\n\t\trequire(address(owner) != address(0));\n\t\trequire(address(spender) != address(0));\n\n\t\treturn _allowances[spender][owner]; // Return the allowance of spender to owner's token holdngs\n\t}\n\n\tfunction approve(address spender, uint256 amount) public returns(bool) {\n\t\trequire(address(spender) != address(0));\n\n\t\t_allowances[spender][msg.sender] = amount; // Set the allowance to requested amount\n\t\treturn true;\n\t}\n\n\tfunction transferFrom(address sender, address recipient, uint256 amount) public {\n\t\trequire(address(sender) != address(0));\n\t\trequire(address(recipient) != address(0));\n\t\trequire(amount <= _allowances[recipient][sender]);\n\n\t\t_allowances[recipient][sender] -= amount;\n\n\t\tholders[sender] -= amount; // Fix this later \n\t\tholders[recipient] += amount;\n\t}\n\n\tfunction increaseAllowance(address spender, uint256 addedValue) public returns(bool) {\n\t\trequire(address(spender) != address(0));\n\t\t\n\t\t_allowances[spender][msg.sender] += addedValue; // Increase the allotted spending\n\t\treturn true;\n\t}\n\n\tfunction decreaseAllowance(address spender, uint256 subtractedValue) public  {\n\t\trequire(address(spender) != address(0));\n\n\t\t_allowances[spender][msg.sender] -= subtractedValue; // Decrease the allotted spending\n\t}\n\n\tfunction _transfer(address sender, address recipient, uint256 amount) public  view {\n\t\trequire(address(sender) != address(0));\n\t\trequire(address(recipient) != address(0));\n\t\trequire(sender.balance >= amount);\n\t\t \n\t\t// Will add more as use cases become more apparent\n\n\n\t}\n\n\tfunction _mint(address account, uint256 amount) internal {\n\t\trequire(amount <= supply); // Make sure the amount being minted is less than or equal to the supply\n\n\t\tholders[account] += amount; // Transfer amount to wallet address\n\t\tsupply -= amount;\n\t}\n/*\n\tfunction _burn(address account, uint256 amount) internal {\n\t\trequire(amount <= supply); // Check to make sure amount being burned is less than or equal to the actual supply\n\n\t\taccount.transfer(amount); // Transfer amount to sink wallet (fix this)\n\t\tsupply -= amount;\n\t}\n    */\n\n\tfunction _approve(address owner, address spender, uint256 amount) internal  {\n\t\trequire(address(owner) != address(0));\n\t\trequire(address(spender) != address(0));\n\n\t\t_allowances[spender][owner] = amount; // Approve by setting the allowance of spender of owner's tokens\n\t}\n\n/*\n\tfunction _beforeTokenTransfer(address from, address to, uint256 amount) internal {\n\t\tif ((address(from) != address(0)) && (address(to) != address(0))){\n\t\t\taddress(from).balance -= amount;\n\t\t\taddress(to).transfer += amount;\n\t\t}\n\t\telse if (address(from) == address(0)) {\n\t\t\t_mint(to, amount); // Null source address means a mint \n\t\t}\n\t\telse if (address(to) == address(0)) {\n\t\t\t_burn(from, amount); // Null destination address (sink) means tokens are sent to a wallet whicch cannot be retrieved. Hence, burned.\n\t\t}\n\t}\n\n\tfunction _afterTokenTransfer(address from, address to, uint256 amount) internal {\n\t\tif ((address(from) != address(0)) && (address(to) != address(0))){\n\t\t\taddress(from).balance -= amount;\n\t\t\taddress(to).transfer += amount;\n\t\t}\n\t\telse if (address(from) == address(0)) {\n\t\t\t_mint(to, amount); // Null source address means a mint \n\t\t}\n\t\telse if (address(to) == address(0)) {\n\t\t\t_burn(from, amount); // Null destination address (sink) means tokens are sent to a wallet whicch cannot be retrieved. Hence, burned.\n\t\t}\n\t}\n    */\n}",
  "sourcePath": "/Users/fresh/Desktop/Projects/memecoin/Memecoin-ERC720/contracts/Memecoin.sol",
  "compiler": {
    "name": "solc",
    "version": "0.5.16+commit.9c3226ce.Emscripten.clang"
  },
  "schemaVersion": "3.4.3",
  "updatedAt": "2022-03-09T19:30:44.640Z",
  "networkType": "ethereum",
  "devdoc": {
    "methods": {}
  },
  "userdoc": {
    "methods": {}
  }
}